{
  "contractName": "Splitter",
  "abi": [
    {
      "constant": true,
      "inputs": [
        {
          "name": "",
          "type": "address"
        }
      ],
      "name": "funds",
      "outputs": [
        {
          "name": "",
          "type": "uint256"
        }
      ],
      "payable": false,
      "stateMutability": "view",
      "type": "function"
    },
    {
      "inputs": [],
      "payable": false,
      "stateMutability": "nonpayable",
      "type": "constructor"
    },
    {
      "anonymous": false,
      "inputs": [
        {
          "indexed": true,
          "name": "_receiver1",
          "type": "address"
        },
        {
          "indexed": false,
          "name": "value1",
          "type": "uint256"
        },
        {
          "indexed": true,
          "name": "_receiver2",
          "type": "address"
        },
        {
          "indexed": false,
          "name": "value2",
          "type": "uint256"
        }
      ],
      "name": "LogFundsAdded",
      "type": "event"
    },
    {
      "anonymous": false,
      "inputs": [
        {
          "indexed": false,
          "name": "_requester",
          "type": "address"
        },
        {
          "indexed": false,
          "name": "value",
          "type": "uint256"
        }
      ],
      "name": "LogWithdrawnFunds",
      "type": "event"
    },
    {
      "constant": false,
      "inputs": [
        {
          "name": "receiver1",
          "type": "address"
        },
        {
          "name": "receiver2",
          "type": "address"
        }
      ],
      "name": "split",
      "outputs": [],
      "payable": true,
      "stateMutability": "payable",
      "type": "function"
    },
    {
      "constant": false,
      "inputs": [],
      "name": "withdrawFunds",
      "outputs": [],
      "payable": false,
      "stateMutability": "nonpayable",
      "type": "function"
    }
  ],
  "bytecode": "0x608060405234801561001057600080fd5b506104b7806100206000396000f3fe608060405260043610610057576000357c0100000000000000000000000000000000000000000000000000000000900463ffffffff1680630f2c93291461005c57806324600fc3146100c0578063e2ae93fb146100d7575b600080fd5b6100be6004803603604081101561007257600080fd5b81019080803573ffffffffffffffffffffffffffffffffffffffff169060200190929190803573ffffffffffffffffffffffffffffffffffffffff16906020019092919050505061013c565b005b3480156100cc57600080fd5b506100d56102e7565b005b3480156100e357600080fd5b50610126600480360360208110156100fa57600080fd5b81019080803573ffffffffffffffffffffffffffffffffffffffff169060200190929190505050610473565b6040518082815260200191505060405180910390f35b81600073ffffffffffffffffffffffffffffffffffffffff168173ffffffffffffffffffffffffffffffffffffffff161415151561017957600080fd5b81600073ffffffffffffffffffffffffffffffffffffffff168173ffffffffffffffffffffffffffffffffffffffff16141515156101b657600080fd5b600034141515156101c657600080fd5b60006002348115156101d457fe5b049050806000808773ffffffffffffffffffffffffffffffffffffffff1673ffffffffffffffffffffffffffffffffffffffff168152602001908152602001600020600082825401925050819055508034036000808673ffffffffffffffffffffffffffffffffffffffff1673ffffffffffffffffffffffffffffffffffffffff168152602001908152602001600020600082825401925050819055508373ffffffffffffffffffffffffffffffffffffffff168573ffffffffffffffffffffffffffffffffffffffff167fcbe79894232a0a69a3748bd7e1fdb2e1a557a9c165e8dc7e6f53105c897e41f183843403604051808381526020018281526020019250505060405180910390a35050505050565b3360008060003373ffffffffffffffffffffffffffffffffffffffff1673ffffffffffffffffffffffffffffffffffffffff168152602001908152602001600020541415151561033657600080fd5b60008060003373ffffffffffffffffffffffffffffffffffffffff1673ffffffffffffffffffffffffffffffffffffffff16815260200190815260200160002054905060008060003373ffffffffffffffffffffffffffffffffffffffff1673ffffffffffffffffffffffffffffffffffffffff168152602001908152602001600020819055503373ffffffffffffffffffffffffffffffffffffffff166108fc829081150290604051600060405180830381858888f19350505050158015610403573d6000803e3d6000fd5b507fd597068ea780922504f5c95d3d599ac28d4cb097e0f20366fbd8143f1d01e6373382604051808373ffffffffffffffffffffffffffffffffffffffff1673ffffffffffffffffffffffffffffffffffffffff1681526020018281526020019250505060405180910390a15050565b6000602052806000526040600020600091509050548156fea165627a7a72305820f8fc74efc38951e1804b57fafbb7ee2d6c07a9da63d911336fb793d3731b3d8b0029",
  "source": "pragma solidity 0.5.0;\n\ncontract Splitter {\n    \n    mapping (address => uint) public funds;\n    \n    constructor() public {\n    }\n    \n    event LogFundsAdded (\n        address indexed _receiver1,\n        uint value1,\n        address indexed _receiver2,\n        uint value2\n    );\n    \n    event LogWithdrawnFunds (\n        address _requester,\n        uint value\n    );\n    \n    modifier addressNotZero (address  add) {\n        require(add != address(0));\n        _;\n    }\n    \n    modifier fundsNotZero (address add) {\n        require(funds[msg.sender] != 0);\n        _;\n    }\n\n    function split(address receiver1, address receiver2) payable public addressNotZero(receiver1) addressNotZero(receiver2) {\n        require(msg.value != 0);\n        uint half = msg.value / 2;\n        funds[receiver1] += half;\n        funds[receiver2] += msg.value - half;\n        emit LogFundsAdded(receiver1, half, receiver2, msg.value - half);\n    }\n    \n    function withdrawFunds() public fundsNotZero(msg.sender) {\n        uint amount = funds[msg.sender];\n        funds[msg.sender] = 0;\n        msg.sender.transfer(amount);\n        emit LogWithdrawnFunds(msg.sender, amount);\n    }\n}\n",
  "sourcePath": "/home/javier/Documents/0Projects/20180904_EthereumDeveloper/DAPPS/20190119_Splitter/contracts/Splitter.sol",
  "compiler": {
    "name": "solc",
    "version": "0.5.0+commit.1d4f565a.Emscripten.clang"
  },
  "schemaVersion": "3.0.1",
  "updatedAt": "2019-02-10T21:44:15.286Z",
  "devdoc": {
    "methods": {}
  },
  "userdoc": {
    "methods": {}
  }
}